:020000040800F2
:10000000881200200101000845210008472100084E
:100010004B2100084F210008532100080000000078
:100020000000000000000000000000005721000850
:1000300059210008000000005B2100085D21000834
:100040001B0100081B0100081B010008D721000844
:100050001B0100081B0100081B0100081B01000810
:100060001B0100081B0100081B0100081B01000800
:100070001B0100081B0100081B0100081B010008F0
:100080001B0100081B0100081B0100081B010008E0
:100090001B0100081B0100081B0100081B010008D0
:1000A0001B0100081B0100081B0100081B010008C0
:1000B000E9230008D92900081B0100081B010008DA
:1000C0001B0100081B0100081B0100081B010008A0
:1000D0001B010008672100084F2A00089F21000823
:1000E0001B0100081B0100081B010008DFF80CD0F1
:1000F00005F098FA00480047DD1F0008881200202C
:100100000648804706480047FEE7FEE7FEE7FEE7B1
:10011000FEE7FEE7FEE7FEE7FEE7FEE70102000876
:10012000ED0000080CB50020019000906B480068BD
:1001300040F480306949086000BF6848006800F4F6
:10014000003000900198401C0190009818B9019867
:10015000B0F5A06FF1D16148006810F4003F02D003
:100160000120009001E0002000900098012842D179
:100170005B48006840F01000594908600846006874
:1001800020F0030008600846006840F002000860A4
:1001900052484068514948600846406848600846EF
:1001A000406840F4806048600846406820F47C1055
:1001B00048600846406840F4E81048600846006817
:1001C00040F08070086000BF4448006810F0007F75
:1001D000FAD04248406820F0030040494860084691
:1001E000406840F00200486000BF3C48406800F0B2
:1001F0000C000828F9D10CBD10B5FFF793FF10BD16
:1002000010B53648006840F00100344908600846DF
:10021000406834490840314948600846006832491E
:1002200008402E4908600846006820F480200860D5
:100230000846406820F4FE0048604FF41F008860C4
:10024000FFF7DAFF4FF000602849086010BD10B5D5
:10025000002100200022214B5B6803F00C0121B13A
:10026000042906D0082928D107E0214B214C23601E
:1002700027E01F4B1F4C236023E0184B5B6803F4FF
:100280007010164B5B6803F48032022303EB90403E
:1002900022B9194B4343174C23600DE00F4B5B68A9
:1002A00013F4003F04D0144B4343124C236003E08B
:1002B0000F4B43430F4C236003E00D4B0D4C236069
:1002C00000BF00BF054B5B68C3F303130B4CE15C3D
:1002D000084B1B68CB40074C236010BD0010024048
:1002E000002002400000FFF8FFFFF6FE08ED00E0EE
:1002F00000127A000000002000093D0004000020E8
:1003000031490143314A1160704770B50021002323
:100310000F22C4780CB32D4C246804F4E064C4F5B7
:10032000E064210AC1F10403CA40447804FA03F1ED
:100330008478144021430901254C0678A15504789E
:1003400004F01F050124AC4005786D114FF0E02644
:1003500006EB8505C5F8004109E0047804F01F05A7
:100360000124AC401B4D0678761145F8264070BD3F
:10037000194A0A400243154B1B1F1A60704739B1D6
:10038000124A121D12680243104B1B1D1A6006E030
:100390000E4A121D126882430C4B1B1D1A607047D7
:1003A000042808D14FF0E021096941F004014FF021
:1003B000E022116107E04FF0E021096921F004011A
:1003C0004FF0E022116170470000FA050CED00E0EB
:1003D00000E400E080E100E080FFFF1F10B504466C
:1003E000CA48844208D10121042000F047FB0021C3
:1003F000042000F043FB46E0C548844208D10121B7
:10040000082000F03BFB0021082000F037FB3AE019
:10041000C048844208D10121102000F02FFB0021A8
:10042000102000F02BFB2EE0BB48844208D10121B4
:10043000202000F023FB0021202000F01FFB22E001
:10044000B648844208D10121402000F017FB00216A
:10045000402000F013FB16E0B148844208D101218E
:10046000802000F00BFB0021802000F007FB0AE059
:10047000AC48844207D10121801500F0FFFA002129
:10048000A01500F0FBFA10BD10B50121084600F0E0
:10049000F5FA0021012000F0F1FA10BD2DE9F0413C
:1004A000024600250026002000230024002791F8A2
:1004B00003C00CF00F0591F803C01CF0100F03D01F
:1004C00091F802C04CEA050591F800C0BCF1000F9C
:1004D00031D0146800202BE04FF0010C0CFA00F32F
:1004E000B1F800C00CEA03069E4220D183004FF011
:1004F0000F0C0CFA03F7BC4305FA03FC4CEA0404A6
:1005000091F803C0BCF1280F06D14FF0010C0CFA92
:1005100000FCC2F814C00AE091F803C0BCF1480F17
:1005200005D14FF0010C0CFA00FCC2F810C0401CC1
:100530000828D1D31460B1F800C0BCF1FF0F34DD3E
:10054000546800202EE000F1080C4FF0010808FA72
:100550000CF3B1F800C00CEA03069E4221D18300DF
:100560004FF00F0C0CFA03F7BC4305FA03FC4CEAFE
:10057000040491F803C0BCF1280F05D100F1080C68
:1005800008FA0CF8C2F8148091F803C0BCF1480FC7
:1005900007D100F1080C4FF0010808FA0CF8C2F876
:1005A0001080401C0828CED35460BDE8F0814FF67F
:1005B000FF710180022181700421C17070470246E1
:1005C000002093680B4201D0012000E0002070471A
:1005D0000146886880B2704702460020D3680B420B
:1005E00001D0012000E0002070470146C86880B2B9
:1005F000704701617047416170470AB1016100E0D5
:1006000041617047C16070474FF480320A43826194
:100610008161826182698269704702460020424B93
:1006200018684FF68073184040EA021008433E4BAA
:10063000186070473D49C8617047F0B50A4600230D
:1006400000240021002500F00046B6F1004F02D141
:10065000354EF16901E0344E7168C0F3034583B251
:1006600000F44016B6F5401F08D121F070612E4EFF
:10067000766826F070662C4F7E6012E000F48016DB
:10068000B6F5801F06D1032606FA05F4A14341F012
:10069000706106E0460D360103FA06F6B14341F0FB
:1006A000706122B1460D360103FA06F6314300F0BF
:1006B0000046B6F1004F02D11B4EF16101E01A4E27
:1006C0007160F0BD30B500228B071C0F0F2303FAB9
:1006D00004F2154B08338C1053F824309343124C1A
:1006E00008348D1044F8253023468C1053F82430FC
:1006F0008C07240F00FA04F423430B4C08348D10AC
:1007000044F8253030BD0A490860704700080140B0
:10071000000C01400010014000140140001801408D
:10072000001C014000200140000001400000204268
:10073000DC0020420E49086070470D494860704750
:100740000B49886070474AF6AA200949086070473B
:100750004CF6CC4006490860704701460020044A28
:10076000D2680A4201D0012000E00020704700005A
:1007700000300040DD48006840F00100DB490860BF
:1007800008464068DA490840D84948600846006889
:10079000D8490840D54908600846006820F4802000
:1007A00008600846406820F4FE0048604FF41F00CF
:1007B00088607047CD49096821F48031CB4A1160C7
:1007C0001146096821F480211160B0F5803F03D003
:1007D000B0F5802F0ED106E0C449096841F480319C
:1007E000C24A116007E0C149096841F4A021BF4A2B
:1007F000116000E000BF00BF704710B50146002245
:10080000002300204A11012A02D1B84C236806E0D7
:10081000022A02D1B54C236A01E0B44C636A01F0AC
:100820001F02012494401C4201D0012000E000205E
:1008300010BD38B5002000900024002500BF3120F5
:10084000FFF7DBFF05460098401C00900098B0F5CC
:10085000A06F01D0002DF2D03120FFF7CEFF08B1FC
:10086000012400E00024204638BD014600209F4AB4
:10087000106820F0F80040EAC100106070479E49FF
:100880000860704702460020984B586820F47C109E
:1008900042EA01031843954B586070479649086631
:1008A000704701460020914A506820F00300084339
:1008B000506070478D48406800F00C00704701465A
:1008C00000208A4A506820F0F000084350607047CA
:1008D00001460020854A506820F4E06008435060DB
:1008E000704701460020814A506820F4605040EA79
:1008F000C1005060704729B17C4A527A02437B4B59
:100900005A7204E0794A527A8243784B5A7270479D
:100910007A490860704701460020744A506820F404
:1009200040400843506070470021754A11706F4A7B
:1009300082F82010012802D0042808D103E0012108
:100940006F4A117004E005216D4A117000E000BF8C
:1009500000BF70476B49086070476449096A0143EA
:10096000624A11627047674944390860704730B580
:1009700000210022002400235C4D6D6805F00C016D
:1009800021B1042905D0082923D105E05E4D056079
:1009900022E05D4D05601FE0544D6D6805F4701256
:1009A000524D6D6805F48034022505EB92421CB966
:1009B000564D554305600BE04C4D6D6815F4003FF6
:1009C00003D0524D5543056002E04F4D554305603D
:1009D00002E04D4D056000BF00BF444D6D6805F05D
:1009E000F00109094A4D6B5C0568DD4045603F4DEB
:1009F0006D6805F4E061090A454D6B5C4568DD40B2
:100A000085603A4D6D6805F46051C90A404D6B5CD4
:100A10004568DD40C560354D6D6805F44041890B82
:100A20003C4D6B5CC568B5FBF3F5056130BD29B184
:100A30002E4A526902432D4B5A6104E02B4A5269F7
:100A400082432A4B5A61704729B1284A926902436E
:100A5000264B9A6104E0254A92698243234B9A61AE
:100A6000704729B1214AD2690243204BDA6104E080
:100A70001E4AD26982431D4BDA61704729B11B4A75
:100A8000D2680243194BDA6004E0184AD268824304
:100A9000164BDA60704729B1144A12690243134BAE
:100AA0001A6104E0114A12698243104B1A617047BF
:100AB00014494039086070470F49C86470470B49B2
:100AC000C87170470948406A40F080700749486221
:100AD000704701460020054A92680A4201D0012071
:100AE00000E0002070470149887270470010024002
:100AF0000000FFF8FFFFF6FE00004242D80042422D
:100B0000201002408004424200127A0000093D0099
:100B1000140000202400002029B14F4A128802430B
:100B20004D4B1A8004E04C4A128882434A4B1A808B
:100B300070474948001D008840F010004649091DD3
:100B4000088070474448001D00884FF6EF71084048
:100B50004149091D0880704700213F481C30018829
:100B6000001F008841EA0040704700B50246FFF7C9
:100B7000E0FF100C384918310880091D0A80FFF782
:100B8000E1FF00BD00B50246FFF7D3FFC2F303400B
:100B9000314908310880091D0A80FFF7D3FF00BDE5
:100BA00000B50246FFF7C5FF100C2B492031088025
:100BB000091D0A80FFF7C6FF00BD0020264910313D
:100BC00009880907080B244914310988084370472C
:100BD00000BF2148001D008810F0200FF9D0704799
:100BE0001D48001D00884FF6F77108401A49091D7D
:100BF000088000BF1848001D008810F0080FF9D0C9
:100C0000704701460020144A121D12880A4201D082
:100C1000012000E0002070470F49091D0988814329
:100C20000D4A121D11807047014600200A4A121D0C
:100C300012880A40D0B2084A12880A4202D008B18B
:100C4000012000E0002070470349091D0988814305
:100C5000014A121D118070470028004010B504465B
:100C6000FE48844208D10121C014FFF707FF00218C
:100C7000E014FFF703FFC4E0B4F1804F08D1012175
:100C80000846FFF708FF00210120FFF704FFB8E046
:100C9000F348844208D101210220FFF7FCFE002125
:100CA0000220FFF7F8FEACE0EE48844208D10121B3
:100CB0000420FFF7F0FE00210420FFF7ECFEA0E087
:100CC000E948844208D101210820FFF7E4FE002111
:100CD0000820FFF7E0FE94E0E448844208D10121B7
:100CE0001020FFF7D8FE00211020FFF7D4FE88E087
:100CF000DF48844208D101212020FFF7CCFE0021EB
:100D00002020FFF7C8FE7CE0DA48844208D10121A8
:100D10004014FFF7B3FE00216014FFF7AFFE70E050
:100D2000D548844209D10121C804FFF7A7FE00215C
:100D30004FF40020FFF7A2FE63E0D048844209D1BF
:100D400001210805FFF79AFE00214FF48010FFF7FC
:100D500095FE56E0CA48844209D101214805FFF7B3
:100D60008DFE00214FF40010FFF788FE49E0C548D2
:100D7000844208D101214020FFF78DFE0021402050
:100D8000FFF789FE3DE0C048844208D10121802060
:100D9000FFF781FE00218020FFF77DFE31E0BB4898
:100DA000844208D101218015FFF775FE0021A015AE
:100DB000FFF771FE25E0B648844209D101210804FD
:100DC000FFF75CFE00214FF48030FFF757FE18E07C
:100DD000B048844209D101214804FFF74FFE0021A9
:100DE0004FF40030FFF74AFE0BE0AB48844208D1D5
:100DF00001218804FFF742FE00214FF48020FFF715
:100E00003DFE10BD00220288944B98420ED0994BB3
:100E100098420BD0B0F1804F08D0914B984205D04A
:100E2000904B984202D0904B984204D14FF68F736A
:100E30001A404B881A438D4B984207D08C4B9842EE
:100E400004D04FF6FF431A40CB881A4302808B88A8
:100E500083850B880385814B98420BD0854B984244
:100E600008D08B4B984205D08A4B984202D08A4BCF
:100E7000984201D10B7A038601238382704770B5B3
:100E8000002400220023058C4FF6FE7635400584B1
:100E9000028C8388048B4FF68F752C40B51E2C4036
:100EA0000D882C43751E2A400D892A434D882A43FC
:100EB0006A4DA8420BD06F4DA84208D0744DA8428D
:100EC00005D0744DA84202D0734DA84213D14FF6FD
:100ED000F7752A404D892A434FF6FB752A408D88C5
:100EE0002A434FF6FF652B404FF6FF552B408D8967
:100EF0002B43CD892B4383800483CD888586028450
:100F000070BD70B5002400220023058C4FF6EF76EB
:100F100035400584028C8388048B48F6FF752C408D
:100F20004FF6FF452C400D884FF6FF7606EA052563
:100F30002C434FF6DF752A400D8906EA05152A4332
:100F40004D8806EA05152A43444DA84202D0494D72
:100F5000A8421DD14FF67F752A404D894FF6FF7686
:100F600006EA05152A434FF6BF752A408D8806EA22
:100F700005152A434FF6FF352B404FF2FF752B40E6
:100F80008D8906EA85052B43CD8906EA85052B4325
:100F900083800483CD880587028470BD70B50024EA
:100FA00000220023058C4FF6FF6635400584028C35
:100FB0008388848B4FF68F752C404FF6FC752C4040
:100FC0000D882C434FF6FF552A400D894FF6FF76CA
:100FD00006EA05252A434D8806EA05252A431F4DC2
:100FE000A84202D0234DA8421DD14FF2FF752A40DE
:100FF0004D894FF6FF7606EA05252A434FF6FF3561
:101000002A408D8806EA05252A434EF6FF752B40B7
:101010004DF6FF752B408D8906EA05152B43CD89CA
:1010200006EA05152B4383808483CD888587028457
:1010300070BD70B5002200230024058C4EF6FF76AB
:1010400035400584038C8488828B48F6FF752A40DE
:101050004FF6FF452A400D8820E00000002C01409B
:101060000004004000080040000C00400010004058
:101070000014004000340140004C01400050014089
:101080000054014000180040001C004000200040B7
:101090000040014000440140004801404FF6FF7607
:1010A00006EA05252A434DF6FF752B400D8906EA11
:1010B00005352B434D8806EA05352B43FA4DA842EA
:1010C00002D0FA4DA84208D14BF6FF752C408D890D
:1010D0004FF6FF7606EA85152C4384808283CD88FF
:1010E000A0F84050038470BD828B4FF2FF331A404A
:1010F0008283828B4FF6FF7303EA01231A438283B4
:101100007047F0B50C461546002200210026078CDA
:101110004EF6FF7C07EA0C070784828B018C4FF6A2
:10112000FF7707EA043640F6FF473A404FF6FF776D
:1011300007EA05273A434FF6FF7707EA03373A43B2
:10114000D94FB8420ED0D94FB8420BD0B0F1804F32
:1011500008D0D74FB84205D0D64FB84202D0D64FAC
:10116000B84206D14DF6FF77394046F480573943EF
:1011700005E047F6FF57394044F4805739438283EE
:101180000184F0BD828B4FF6F3731A408283828B09
:101190000A4382837047F0B50C46154600220021B1
:1011A0000026078C4FF6FF6C07EA0C070784828B3A
:1011B000018C4FF6FF7707EA04264FF60C773A408A
:1011C0004FF6FF7707EA03172F433A43B64FB8426B
:1011D0000ED0B64FB8420BD0B0F1804F08D0B44F0C
:1011E000B84205D0B34FB84202D0B34FB84206D18F
:1011F0004FF6FF57394046F48077394305E04FF208
:10120000FF57394044F48077394382830184F0BD2D
:10121000028B4FF2FF331A400283028B4FF6FF73AB
:1012200003EA01231A4302837047F0B50C461546C2
:10123000002200210026078C4FF6EF7C07EA0C07FE
:101240000784028B018C4FF6FF7707EA041640F6FD
:10125000FF473A404FF6FF7707EA03373A434FF626
:10126000FF7707EA05273A438F4FB8420ED08F4FDA
:10127000B8420BD0B0F1804F08D08D4FB84205D0A6
:101280008C4FB84202D08C4FB84206D14FF6DF7770
:10129000394046F01007394305E04FF65F77394093
:1012A00044F01007394302830184F0BD028B4FF6EE
:1012B000F3731A400283028B0A4302837047F0B52E
:1012C0000C46154600220021068C4FF6FE773E4064
:1012D0000684028B018C4FF60C7632407E1C06EAA7
:1012E00003162E433243704EB0420ED06F4EB042C2
:1012F0000BD0B0F1804F08D06D4EB04205D06D4E8E
:10130000B04202D06C4EB04206D14FF6FD7631406D
:1013100044F00106314305E04FF6F576314044F0E4
:101320000106314302830184F0BD70B505460C46C9
:101330005D4885420ED05D4885420BD0B5F1804FA7
:1013400008D05B48854205D05A48854202D05A48A9
:10135000854200D100E000BF208850B92389A288CF
:1013600061882846FFF7ABFFE1882846FFF79EFF1C
:1013700025E0208804280AD12389A288618828468C
:10138000FFF753FFE1882846FFF742FF17E0208868
:1013900008280AD12389A28861882846FFF7FBFE26
:1013A000E1882846FFF7EEFE09E02389A2886188DC
:1013B0002846FFF7A6FEE1882846FFF795FE70BD98
:1013C0002DE9F04105460C4600260127608808B942
:1013D000022600E00026A088012801D1022700E0B3
:1013E00001272088A0B92389A28861882846FFF7B1
:1013F00066FFE1882846FFF759FF23893A463146C0
:101400002846FFF712FFE1882846FFF701FF13E0A7
:101410002389A28861882846FFF707FFE1882846CC
:10142000FFF7F6FE23893A4631462846FFF747FF85
:10143000E1882846FFF73AFFBDE8F0810A884B882B
:101440001A438B881A43CB881A430B891A434B895A
:101450001A438B891A43A0F8442070474FF6FF7156
:10146000818000210180C18041800172704700218C
:10147000018041808180C180018141818181C18160
:101480007047002101804180012181800021C180BD
:10149000018170470021018041808180C1800181EC
:1014A0004181818170470000002C014000340140DF
:1014B0000004004000080040000C004021B10288F8
:1014C00042F00102028004E002884FF6FE731A40E7
:1014D0000280704731B1B0F8442042F40042A0F8D5
:1014E000442005E0B0F84420C2F30E02A0F84420E6
:1014F00070471AB183890B43838102E083898B4350
:10150000838170478182704741EA0203A0F8483026
:1015100070471AB183890B43838102E083898B432F
:101520008381704701894FF6F8721140018170473D
:101530000A46002101894FF68F731940114301813A
:10154000704730B504460D4629462046FFF7F0FFA8
:10155000208940F00700208130BD2DE9F04104468C
:101560000D4616461F46602D06D13B4601223146E8
:101570002046FFF75AFE05E03B4601223146204651
:10158000FFF79DFE29462046FFF7D2FF208940F055
:1015900007002081BDE8F08130B50C4600210189AB
:1015A000C9B24FF6FF7505EA0325154325432943C4
:1015B000018130BD2DE9F04105460E46174698469B
:1015C000002443463A4631462846FFF7E5FF2C897A
:1015D0004FF6F870044044F007044FF68F70044053
:1015E00044F070042C81BDE8F081F0B504460D464E
:1015F00016461F463B46324629462046FFF7CCFF9B
:10160000208940F480402081F0BD018582827047AE
:101610000A46002101884FF68F731940114301805B
:101620007047F0B50C4615461E46002100220023E7
:101630000189028B038C4FF6F877394021434FF62E
:10164000FC473A4040F201173A434FF6DD773B4002
:101650004FF6FF7707EA06172F433B4301810283CA
:101660000384F0BD0A460021018B4FF68F731940A9
:101670001143018370470A460021018B48F6FF732E
:1016800019404FF6FF7303EA0223194301837047A1
:101690000A460021818B4FF68F73194011438183D5
:1016A00070470A460021818B48F6FF7319404FF6B8
:1016B000FF7303EA022319438183704721B1028833
:1016C00042F08002028004E002884FF67F731A40E5
:1016D0000280704721B1828842F00402828004E0D7
:1016E00082884FF6FB731A408280704721B182884E
:1016F00042F00802828004E082884FF6F7731A40B5
:101700008280704721B1828842F00102828004E029
:1017100082884FF6FE731A40828070470A46002185
:10172000018B4FF6F77319401143018370470A4646
:101730000021018B4FF2FF7319404FF6FF7303EA4C
:1017400002231943018370470A460021818B4FF61B
:10175000F77319401143818370470A460021818B3A
:101760004FF2FF7319404FF6FF7303EA0223194348
:10177000818370470A460021018B4FF6FB731940A5
:101780001143018370470A460021018B4FF6FF3356
:1017900019404FF6FF7303EA022319430183704790
:1017A0000A460021818B4FF6FB7319401143818358
:1017B00070470A460021818B4FF6FF3319404FF6E0
:1017C000FF7303EA02231943818370470A4600210D
:1017D000018B4FF67F7319401143018370470A460E
:1017E0000021018BC1F30E014FF6FF7303EA0223C0
:1017F0001943018370470A460021818B4FF67F739E
:1018000019401143818370470A460021818BC1F33F
:101810000E014FF6FF7303EA0223194381837047D9
:101820000A460021018C4FF6FD73194011430184D3
:1018300070470A460021018C4FF6F7731940114397
:10184000018470470A460021018C4FF6DF7319406E
:101850004FF6FF7303EA02131943018470470A46E7
:101860000021018C4FF67F7319404FF6FF7303EA96
:1018700002131943018470470A460021018C4FF678
:10188000FF5319404FF6FF7303EA02231943018403
:1018900070470A460021018C4FF2FF7319404FF642
:1018A000FF7303EA02231943018470470A460021AB
:1018B000018C4DF6FF7319404FF6FF7303EA0233B4
:1018C00019430184704730B5002301248C40A3B232
:1018D000048C9C430484048C02FA01F5ADB22C43C1
:1018E000048430BD30B5002304248C40A3B2048CA2
:1018F0009C430484048C02FA01F5ADB22C430484A9
:1019000030BD70B50346002000241846183001256C
:101910008D40ACB21D8CA5431D8409B1082909D1A5
:1019200000EB6100056825F070050560056815434A
:1019300005600EE00D1FC5F34E052844056825F42B
:10194000E045056005684FF6FF7606EA0226354356
:10195000056070BD21B1028842F00202028004E0FD
:1019600002884FF6FD731A400280704721B1028849
:1019700042F00402028004E002884FF6FB731A4032
:101980000280704721B1828842F08002828004E0A8
:1019900082884FF67F731A408280704702884FF624
:1019A000F7731A40028002880A43028070478288D7
:1019B0004FF68F731A40828082880A438280704774
:1019C00002894FF6F8731A40028102890A430281A4
:1019D000704702894FF67F731A40028102890A43D9
:1019E0000281704781847047818570478186704786
:1019F0000187704781877047A0F8401070470288C0
:101A00004FF6FF431A40028002880A430280704763
:101A10000146888E70470146088F70470146888FBF
:101A200070470146B1F8400070470146888C704706
:101A30000146088D704702460020138A0B4201D0F0
:101A4000012000E000207047CA430282704730B591
:101A50000246002000230024158A05EA0103958927
:101A600005EA010413B10CB1012000E0002030BDF3
:101A7000CA4302827047000010B50446FB48844206
:101A800009D101218803FEF7F9FF00214FF48040BE
:101A9000FEF7F4FF32E0F648844209D10121480400
:101AA000FEF7F9FF00214FF40030FEF7F4FF25E0C8
:101AB000F048844209D101218804FEF7ECFF00219F
:101AC0004FF48020FEF7E7FF18E0EB48844209D18D
:101AD0000121C804FEF7DFFF00214FF40020FEF7CC
:101AE000DAFF0BE0E548844208D101210805FEF742
:101AF000D2FF00214FF48010FEF7CDFF10BD2DE97D
:101B0000F04786B005460E460024A24600BFA14617
:101B10000027B08900B100BF2F462C8A4CF6FF7019
:101B20000440F08804432C82AC894EF6F310044044
:101B3000B08831890843718908430443AC81AC8A79
:101B40004FF6FF400440B0890443AC8201A8FEF781
:101B50000EFFC648874202D1DDF810A001E0DDF893
:101B60000CA0A88910F4004F08D00AEBCA0000EBC3
:101B70000A1031684900B0FBF1F807E00AEBCA002F
:101B800000EB0A1031688900B0FBF1F86420B8FB63
:101B9000F0F004012009642101FB1089A88910F4E8
:101BA000004F08D0322000EBC900B0FBF1F000F08C
:101BB0000700044308E0322000EB09106421B0FB69
:101BC000F1F000F00F0004432C8106B0BDE8F0876F
:101BD0004FF41651016000218180C18001810C21E8
:101BE000418100218181704710B502460020108A92
:101BF0004FF2FF0318400B884C8823438C88234303
:101C0000CC8823431843108210BD002101804180FD
:101C10008180C180704721B1828942F40052828163
:101C200004E082894DF6FF731A4082817047F0B557
:101C300003460024002600250020A1F510676A3F16
:101C400000D100BF1846C1F3421401F01F0601275E
:101C500007FA06F5012C01D10C3004E0022C01D169
:101C6000103000E014301AB107682F43076002E01B
:101C70000768AF430760F0BD1AB1838A0B438382C4
:101C800002E0838A8B4383827047028A4FF6F073A7
:101C90001A400282028A0A430282704782894FF206
:101CA000FF731A40828182890A438281704721B181
:101CB000828942F00202828104E082894FF6FD733C
:101CC0001A4082817047028A4FF6DF731A400282FF
:101CD000028A0A430282704721B1028A42F480429A
:101CE000028204E0028A4BF6FF731A4002827047B8
:101CF000C1F308028280704701468888C0F308005B
:101D00007047818941F0010181817047028BD2B215
:101D10000283028B42EA012202837047028B02F4A3
:101D20007F420283028B0A430283704721B1828A79
:101D300042F02002828204E0828A4FF6DF731A406A
:101D40008282704721B1828A42F01002828204E0CE
:101D5000828A4FF6EF731A408282704721B1828ADD
:101D600042F00802828204E0828A4FF6F7731A403A
:101D70008282704721B1828942F40042828103E06D
:101D80008289C2F30E028281704721B1828A42F4B5
:101D90000062828204E0828A4FF2FF731A408282DC
:101DA0007047828A4FF6FB731A408282828A0A4306
:101DB0008282704721B1828A42F00202828204E06C
:101DC000828A4FF6FD731A408282704702460020D5
:101DD000B1F5007F00D100BF13880B4201D0012074
:101DE00000E00020704701F40072B2F5007F00D1DE
:101DF00000BFCA430280704770B50246002400232A
:101E000000250020A1F510666A3E00D100BFC1F395
:101E1000421501F01F03012606FA03F3012D02D13A
:101E20009689334006E0022D02D1168A334001E044
:101E3000968A33400C12012606FA04F416883440C0
:101E400013B10CB1012000E0002070BD10B50022DC
:101E50000023A1F510646A3C00D100BF0A120124DE
:101E60009440A3B2DC43048010BD00000038014060
:101E70000044004000480040004C0040005000403A
:101E800010B566A003F000FC032002F097F910BD26
:101E900010B56AA003F0F8FB002002F08FF910BD26
:101EA00010B56EA003F0F0FB012002F087F910BD21
:101EB00010B571A003F0E8FB022002F07FF910BD1D
:101EC00010B575A003F0E0FB002000F05EFC0120DF
:101ED00000F05BFC00207849C1F8010010BD10B58E
:101EE00076A003F0D1FB002000F04FFC012000F0B1
:101EF00055FC01207049C1F8010010BD10B578A053
:101F000003F0C2FB002000F049FC012000F03DFC82
:101F100002206949C1F8010010BD10B577A003F097
:101F2000B3FB002000F03AFC012000F037FC032056
:101F30006149C1F8010010BD00B589B0AFF2AF0032
:101F4000AFF2C3010123764ACDE90010042103A8B2
:101F500000F086FA152203A9724803F0EAF9AFF2FD
:101F6000AF00AFF2C30108236F4ACDE90010402152
:101F700003A800F075FA152203A96A48153003F08A
:101F8000D8F9AFF2A500AFF2C7010423664ACDE944
:101F90000010402103A800F063FA152203A961484C
:101FA0002A3003F0C6F9AFF28D00AFF2AF01102373
:101FB0005D4ACDE90010402103A800F051FA152236
:101FC00003A958483F3003F0B4F956485749C1F8BF
:101FD0000100084600F06DFA09B000BDFEF710F9E7
:101FE00000F072FB00F0D6FC02F0D1F800F0A8FB84
:101FF000FFF7A2FF00F0FDFC00F06AFD022000F0F8
:1020000081FB4BA003F040FB06E000F091FB00F0E9
:10201000C0FC294802F014FBF7E700004B4559319A
:10202000205052455353202C50726F64756374696D
:102030006F6E204D6F64650A000000004B455931FA
:10204000205052455353204C4F4E47202C57696621
:10205000692052657365740A000000004B455932CF
:10206000205052455353202C536F6674204150200A
:102070006D6F64650A0000004B455932205052458F
:102080005353204C4F4E47202C4169724C696E6B64
:10209000206D6F64650A00004B455933205052454E
:1020A0005353202C6C65645F636F6C6F7220637593
:1020B00073746F6D0A000000A40000204B45593373
:1020C000205052455353204C4F4E47202C6C656492
:1020D0005F636F6C6F722079656C6C6F770A0000BC
:1020E0004B455934205052455353202C6C65645F46
:1020F000636F6C6F72207265640A00004B4559343F
:10210000205052455353204C4F4E47202C6C656451
:102110005F636F6C6F7220626C75650A000000006F
:102120000008014050000020001801402800002055
:102130004D435520496E697420537563636573730D
:10214000200A0000704700BFFEE700BFFEE700BFA7
:10215000FEE700BFFEE770477047704700204FF072
:10216000E0218861704710B540F225511E48FFF705
:1021700043FE98B140F225511B48FFF767FE1A480D
:10218000FFF7BAFD044621461748FFF7B1FD00BF2F
:1021900080211548FFF71AFE0028F9D010BD10B5B0
:1021A00040F225511148FFF727FE98B140F2255122
:1021B0000E48FFF74BFE0D48FFF79EFD04462146F3
:1021C0000A48FFF795FD00BF80210848FFF7FEFD94
:1021D0000028F9D010BD10B50120FEF725FD10B183
:1021E0000120FEF731FD10BD0038014000480040DD
:1021F00070B505460024002600BF22E0D5F8012076
:10220000C4EBC40303EB43031A44B2F8092091B2B0
:10221000D5F80120C4EBC40303EB43031A44D2F8FE
:102220000500FEF7CCF950B9D5F80100C4EBC401A4
:1022300001EB4101415C01208840304386B2601CC3
:10224000C4B2BC480078A042D8DC304670BD70B53E
:10225000054600240026B8480078401CB64908709E
:10226000084600781E2804DB002008700120B349CE
:102270000870B2480078012856D10020AF49087094
:102280002846FFF7B5FF0446AD48007830B1012875
:102290000BD0022819D0032845D13CE024B1A9482D
:1022A00004800120A64908703DE0A64800888442C9
:1022B00007D10220A2490870A248008840F4805645
:1022C00002E000209E4908702DE09E48008884426C
:1022D0000AD000209A4908709B49088099480088D4
:1022E00040F40056304670BD96480088844211D1B3
:1022F00095480088401C9449088008460088642856
:1023000008DB0020088003208D49087044F4004653
:102310003046E8E707E08B480088844202D000207E
:102320008749087000BF00BF0020DCE770B5054694
:10233000002400262846FFF78AFF064606B970BD2E
:1023400016F4005F25D0002420E0D5F80100C4EB8E
:10235000C40101EB4101415C01208840304213D0AF
:10236000D5F80100C4EBC40101EB41010844D0F8E9
:102370000D0048B1D5F80110C4EBC40202EB4202D3
:102380001144D1F80D008047601CC4B22878A042E7
:10239000DBDC16F4004F25D0002420E0D5F8010046
:1023A000C4EBC40101EB4101415C01208840304293
:1023B00013D0D5F80100C4EBC40101EB410108447E
:1023C000D0F8110048B1D5F80110C4EBC40202EBFB
:1023D00042021144D1F811008047601CC4B2287831
:1023E000A042DBDC00BFAAE710B501218807FFF798
:1023F0002EFB30B101218807FFF73AFB4D48FFF76C
:1024000095FF10BD7FB541F61F45092401210846FF
:10241000FEF727FBADF80850ADF804400020ADF8FA
:102420000A00ADF8060001A9A007FEF7EBFC0122A7
:1024300011469007FFF75DF81C208DF80000002082
:102440008DF8010002208DF8020001208DF80300B4
:102450006846FDF75AFF01218807FFF72FF87FBD77
:102460002DE9F04387B007460C4615461E46DDE9C8
:102470000E89CDF80540CDF80950CDF80D603348F0
:102480000078401C40B231490870C0B28DF8040099
:10249000CDF81590CDF811802D480078401C2C49BE
:1024A0000870152201A9384602F043FF07B0BDE8C5
:1024B000F08338B50446002504B938BD24480078B7
:1024C000207020780C2801DD0C20207000252AE0E7
:1024D00054F8011FC5EBC50202EB42021144D1F8CA
:1024E00001000121FEF7B0FA03208DF80200482018
:1024F0008DF803002068C5EBC50101EB41010844DC
:10250000B0F8090080B2ADF8000054F80119C5EB2D
:10251000C50202EB42021144D1F805006946FDF7FD
:10252000BDFF681CC5B22078A842D1DCFFF76AFF66
:1025300000BFC2E728000020370000202F00002045
:10254000300000203400002032000020360000203F
:102550002E00002008B501210420FEF775FA0121A4
:102560000846FEF771FA01218803FEF76DFA4FF471
:102570000070ADF8000018208DF8030003208DF8DE
:10258000020069465C48FDF789FF4FF48060ADF8B2
:10259000000004208DF8030069465748FDF77EFFD0
:1025A00001210420FEF750FA01214804FEF759FAF0
:1025B00001210846FEF748FA0420ADF80000182073
:1025C0008DF8030003208DF8020069464A48FDF7A4
:1025D00065FF0820ADF8000004208DF8030069466F
:1025E0004548FDF75BFF08BD1FB54FF4E130009093
:1025F0000020ADF80400ADF80600ADF80800ADF815
:102600000C000C20ADF80A0069463C48FFF777FA49
:10261000012240F225513948FFF709FB01213748D3
:10262000FFF7F9FA40213548FFF7DDFB4FF416506C
:1026300000900020ADF80400ADF80600ADF80800E9
:10264000ADF80C000C20ADF80A0069462C48FFF7E5
:1026500056FA012240F225512948FFF7E8FA0121F4
:102660002748FFF7D8FA40212548FFF7BCFB1FBDDC
:1026700008B525208DF8000000208DF801008DF8A8
:10268000020001208DF803006846FDF73EFE26207B
:102690008DF8000000208DF8010001208DF8020067
:1026A0008DF803006846FDF730FE08BD10B50446FE
:1026B00021461248FFF71CFB00BF80210F48FFF79F
:1026C00085FB0028F9D010BD10B5FFF743FFFFF7D9
:1026D0008BFFFFF7CDFF10BD70B504460D46E1B28C
:1026E0000648FFF705FB00BF80210448FFF76EFB9B
:1026F0000028F9D0204670BD000801400038014094
:102700000044004070B50446042540F27120604347
:1027100086B245F25550FEF70DF82846FEF70DF843
:102720003046FEF70DF8FEF70EF8FEF711F870BD13
:102730004AF6AA20014908607047000000300040B6
:1027400008B501214820FEF77FF903208DF802002B
:1027500010208DF803002020ADF8000069461A48CB
:10276000FDF79CFE69461948FDF798FE20211648A2
:10277000FDF73FFF20211548FDF73BFF01201449DD
:1027800008601449C1F8940108BD18B90021104A25
:10279000116002E00021104A1160704718B9012150
:1027A0000B4A116002E001210B4A1160704708B525
:1027B00000210091009102E00099491C00910099CC
:1027C0008142F9D308BD0000000C0140001801400F
:1027D0009481214200002342940123422DE9FF5FAE
:1027E00007460E4693464FF000083446B14635463C
:1027F000B24607B126B94FF0FF3004B0BDE8F09FF4
:102800004FF00008BFE0781C10F8080017286FD2BE
:10281000DFE800F0878889B3B38A8B8C8DB3B3B3BC
:10282000B38E98A7940C1556626F7B002078D3491D
:10283000087008460178D2A002F026FF9EE0D4F886
:102840000100CE49C1F801000846D0F80110D3A01C
:1028500002F01AFFC948D0F8010030B101280ED0AB
:10286000022816D0032828D11DE00020FFF78DFF95
:102870000120FFF78AFFD0A002F006FF1EE0002033
:10288000FFF783FF0120FFF789FFCEA002F0FCFED7
:1028900014E00020FFF782FF0120FFF776FFCCA0B5
:1028A00002F0F2FE0AE00020FFF778FF0120FFF7B8
:1028B00075FFC9A002F0E8FE00E000BF00BF5DE0C8
:1028C000D4F80500AD49C1F805000846D0F8051058
:1028D000C4A002F0D9FE51E0D4F80900A749C1F81C
:1028E00009000846D0F80910C3A002F0CDFE45E06B
:1028F00043E0D4F80D00A149C1F80D000846D0F816
:102900000D10C2A002F0C0FE38E0D4F811009B49BF
:10291000C1F811000846D0F81110C1A002F0B4FEB1
:102920002CE02BE02AE029E028E027E026E025E063
:1029300099F80010C1A002F0A7FE1FE0C2A002F0AB
:10294000A3FE1BE0A9796A792B79A868CDE900324A
:10295000CDE90210EB78AA782988C0A002F094FE95
:102960000CE0C9A002F090FECCA002F08DFE9AF817
:102970000010CEA002F088FE00E000BF00BF08F10A
:10298000010000F0FF08387840453FF73CAF0020D9
:1029900033E7704710B52421784802F0E3FC10BDFE
:1029A000C7480068401CC64908607047C4480068B2
:1029B0007047012080F3138800BF00BFC148006842
:1029C00000F4E060C0490843001DBE490860BFF341
:1029D000408F00BF00BFFEE710B50121BB48FFF7E5
:1029E00036F828B10121B948FFF742F8FFF7D8FFC0
:1029F00010BD7FB541F61F45092401210220FEF7D5
:102A000030F8ADF80850ADF804400020ADF80A00E9
:102A1000ADF8060001A9AD48FEF7F4F90122114610
:102A2000AA48FEF766FD1D208DF8000000208DF8F5
:102A3000010002208DF8020001208DF80300684695
:102A4000FDF763FC0121A148FEF738FD7FBD08B505
:102A50000020009040F225519D48FFF7CDF968B164
:102A600040F225519A48FFF7F1F99948FFF744F9E8
:102A7000C0B200900121684600F02EF908BD70B583
:102A800005460E4600240DB9601E70BD00241BE0F3
:102A9000295D8F48FFF72CF900BF80218C48FFF794
:102AA00095F90028F9D0022C0DD3285DFF280AD112
:102AB00055218748FFF71CF900BF80218448FFF7A4
:102AC00085F90028F9D0641CB442E1D33046DCE734
:102AD00000B587B001210420FDF7B6FF01214804AD
:102AE000FDF7BFFF01210846FDF7AEFF0420ADF85A
:102AF000180018208DF81B0003208DF81A0006A975
:102B00007448FDF7CBFC0820ADF8180004208DF8C0
:102B10001B0006A96F48FDF7C1FC4FF41650029048
:102B20000020ADF80C00ADF80E00ADF81000ADF8C7
:102B300014000C20ADF8120002A96548FEF7DFFF73
:102B4000012240F225516248FFF771F801216048E7
:102B5000FFF761F840215E48FFF745F926208DF820
:102B6000040000208DF8050001208DF806008DF886
:102B7000070001A8FDF7C9FB07B000BDA4000020B5
:102B80004576743A204556454E545F4C45445F4F58
:102B90006E4F6666202564200A0000004576743A70
:102BA000204556454E545F4C45445F436F6C6F72F1
:102BB0002025640A000000000D0A637573746F6DB0
:102BC0000D0A00000D0A79656C6C6F770D0A000024
:102BD0000D0A7265640D0A000D0A626C75650D0AB6
:102BE000000000004576743A4556454E545F4C450A
:102BF000445F522025640A004576743A4556454E96
:102C0000545F4C45445F472025640A004576743A7A
:102C10004556454E545F4C45445F422025640A00AA
:102C20004576743A4556454E545F4D6F746F725FEA
:102C300053706565642025640A00000052535349AF
:102C40002025640A000000005452414E5350415266
:102C5000454E545F44415441200A000057494649BB
:102C60005F4E5450203A205B25642D25642D256449
:102C700020253032643A253032643A253032645DA2
:102C80005B25645D200A00004D4F44554C452049AA
:102C90004E464F202E2E2E0A000000005749462097
:102CA0004D4F44554C45202E2E2E0A006D6F6475F5
:102CB0006C6554797065203A205B25645D200A00BC
:102CC000380000200CED00E00000FA050004004090
:102CD000004400400008014070B504460D4600263F
:102CE00024B9F6A002F0D0FC701E70BD2A46214621
:102CF000FA4802F0CBFA0646AE4205D0F8A002F040
:102D0000C3FC4FF0FF30F0E73046EEE710B5044665
:102D10002CB9FAA002F0B8FC4FF0FF3010BD002033
:102D200020606060FF20207060700020F6E770B5C2
:102D300004460D462CB9FCA002F0A6FC4FF0FF3073
:102D400070BD2721FE4802F00DFB2A462146FC48B3
:102D5000801C02F0EEFAFA484B38A0F86C500121C2
:102D600080F84C10FFF722FEF5494B39C1F86E0090
:102D70000020E5E7F8B505460C4616460DB104B14E
:102D80002EB9F0A002F080FC4FF0FF30F8BD28789B
:102D900010F0010F13D011212278601C815420788B
:102DA000401C207001206B1C024600210090084648
:102DB00002F031F908B1012000E0002030702878DD
:102DC000C0F3400080B112212278601C8154207829
:102DD000401C207001206B1C022201460090002044
:102DE00002F019F9C6F801002878C0F3800068B134
:102DF00013212278601C81542078401C2070AA780E
:102E00000021012002F022F8C6F805002878C0F35E
:102E1000C00068B114212278601C81542078401CC5
:102E20002070EA780021012002F010F8C6F80900AD
:102E30002878C0F3001068B115212278601C8154F5
:102E40002078401C20702A790021012001F0FEFF2B
:102E5000C6F80D002878C0F3401070B11621227812
:102E6000601C81542078401C20706A796FF0040146
:102E7000012001F0EBFFC6F81100002086E770B5D5
:102E800004460D46002604B12DB9B9A002F0FCFBA2
:102E90004FF0FF3070BD28782178884203D0BEA063
:102EA00002F0F2FB0126D5F80100D4F801108842A7
:102EB00003D0BFA002F0E8FB0126D5F80500D4F846
:102EC0000510884203D0C0A002F0DEFB0126D5F831
:102ED0000900D4F80910884203D0C0A002F0D4FB46
:102EE0000126D5F80D00D4F80D10884203D0C0A0FB
:102EF00002F0CAFB0126D5F81100D4F8111088425F
:102F000003D0C0A002F0C0FB0126687D617D88422D
:102F100003D0C3A002F0B8FB0126A87FA17F88429E
:102F200003D0C5A002F0B0FB0126E87FE17F884214
:102F300003D0C7A002F0A8FB012695F8200094F862
:102F40002010884203D0C8A002F09EFB012695F80D
:102F5000210094F82110884203D0C9A002F094FB0C
:102F6000012695F8220094F82210884203D0CBA0C5
:102F700002F08AFB012695F8230094F8231088427A
:102F800003D0CDA002F080FB0126D5F81600D4F8BE
:102F90001610884210D0FFF709FDCD490968401A84
:102FA00041F27071884207D3CAA002F06DFBFFF7AF
:102FB000FDFCC74908600126D5F81A00D4F81A109C
:102FC000884210D0FFF7F2FCC1490968401A41F26B
:102FD0007071884207D3C6A002F056FBFFF7E6FCEB
:102FE000BB4908600126304654E738B504460D4613
:102FF00004B12DB9C4A002F047FB4FF0FF3038BD3B
:103000000020287068712872687220782B4601228F
:1030100000210090084602F05FF8D4F8010004286F
:1030200005D3C5A002F030FB4FF0FF30E7E7D4F83E
:1030300001002B46022201210090002002F04CF8F2
:1030400004F10504207C2B464FF001024FF00001F3
:1030500000904FF0050002F03FF8607E2B46012201
:1030600000210090082002F037F8A07E2B460122B4
:1030700011460090082002F02FF8E07E2B46012236
:1030800000210090092002F027F8207F2B46012222
:1030900011460090092002F01FF8607F2B460122A4
:1030A00002210090092002F017F8A07F2B46012290
:1030B00003210090092002F00FF857E14552523ADF
:1030C0002067697A50757444617461206275662066
:1030D000697320656D707479200A00003A0200203F
:1030E0004552523A204661696C656420746F2072C3
:1030F000625772697465200A000000004552523A16
:103100002067697A50726F746F636F6C4865616491
:10311000496E6974206865616420697320656D700B
:103120007479200A000000004552523A206461740C
:103130006120697320656D707479200A00000000B9
:103140001301002067697A44617461506F696E747D
:10315000324576656E74204572726F72202C20495C
:103160006C6C6567616C20506172616D0A000000D3
:1031700067697A436865636B5265706F7274204546
:1031800072726F72202C20496C6C6567616C2050E4
:103190006172616D0A00000076616C75654C454492
:1031A0005F4F6E4F6666204368616E6765640A0014
:1031B00076616C75654C45445F436F6C6F7220435C
:1031C00068616E6765640A0076616C75654C45449C
:1031D0005F52204368616E6765640A0076616C75B2
:1031E000654C45445F47204368616E6765640A002B
:1031F00076616C75654C45445F42204368616E673B
:1032000065640A0076616C75654D6F746F725F530B
:1032100070656564204368616E6765640A0000003C
:1032200076616C7565496E6672617265642043688B
:10323000616E6765640A000076616C7565416C6556
:1032400072745F31204368616E6765640A00000034
:1032500076616C7565416C6572745F32204368619C
:103260006E6765640A00000076616C75654661757D
:103270006C745F4C4544204368616E6765640A0066
:1032800076616C75654661756C745F4D6F746F72B5
:10329000204368616E6765640A00000076616C75A2
:1032A000654661756C745F54656D48756D20436843
:1032B000616E6765640A000076616C7565466175CC
:1032C0006C745F4952204368616E6765640A000050
:1032D0003C00002076616C756554656D70657261A7
:1032E00074757265204368616E6765640A0000004A
:1032F00076616C756548756D696469747920436899
:10330000616E6765640A000067697A4461746150A0
:103310006F696E7473325265706F72744461746158
:10332000204572726F72202C20496C6C6567616C4D
:1033300020506172616D0A005B4552524F525D2010
:1033400076616C75654C45445F436F6C6F722045C8
:1033500072726F72202C20496C6C6567616C204F13
:10336000766572737465700A0000000001212846BA
:1033700001F04CFD0121681D01F048FD012105F11E
:10338000080001F043FD012105F1090001F03EFDB7
:1033900022680021012001F052FD6870626800215E
:1033A000012001F04CFDA870A2680021012001F06D
:1033B00046FDE870E2686FF00401012001F03FFD76
:1033C0002871D4F811206FF00C01012001F037FDB5
:1033D000A871D4F81520A4F105044FF000014FF0B6
:1033E000010001F02CFDE871002008E62DE9F0470E
:1033F00080460C4617461D46089E94F800900CB176
:1034000005B136B9F7A002F03FF94FF0FF30BDE843
:10341000F087B8F1000F59D11821FE4801F0A2FF42
:10342000B9F1010F06D0B9F1020F11D0B9F1050FB2
:103430004AD129E0F74A6A32F649601CFFF79AFC44
:103440000120F449723908700025002030603CE00A
:10345000F049603101F12E00FFF7C7FD80B9ED485A
:103460001838816FC5F80110C16FC5F80510B0F8A4
:103470008000A5F80900032028700B20306002E0CE
:103480004FF0FF30C3E720E07A1E611CE14852385C
:1034900001F04FFF781EDF497239C1F83F0010215B
:1034A000DC48723890F8722073308154733890F889
:1034B0007200401CD749723981F8720003200870ED
:1034C00000250020306000E000BF00BF00209EE724
:1034D0002DE9F04F91B006468B46174699460020DD
:1034E00010908246804600256C46BBF1000F06D145
:1034F000C9A002F0C9F8681E11B0BDE8F08FB9F19B
:10350000010F06D196F8088008F10600384485B20C
:1035100001E0781D85B22B4642463946C4A002F030
:10352000B3F8FF2004F8010B04F8010B281204F88B
:10353000010B04F8015B3079401C04F8010B707931
:1035400004F8010B002004F8010B04F8019B4FF074
:10355000080AB9F1010F0CD104F8018B0AF1010A34
:103560000DEB0A00424606F1090101F0E2FEC244F9
:1035700044442FB10DEB0A003A46594601F0D9FEFA
:10358000291D684601F07AFA0146E81C0DF8001082
:10359000291D6846FFF773FA10901098002806DA84
:1035A000ADA0109902F070F86FF00100A4E70020C0
:1035B000A2E7F0B585B005460E46174600242EB9A1
:1035C000ABA002F061F8601E05B0F0BD6846FFF7E1
:1035D0009DFB05208DF804008E48723890F843104A
:1035E000D0F84300401C8B4A723AC2F84300C8B27C
:1035F0008DF805008DF80850102001F052FAADF852
:1036000002003A4631460DF1090001F092FE142104
:10361000684601F033FA8DF8130014216846FFF76D
:103620002EFA0446002C06DA21469BA002F02CF864
:103630006FF00100C8E714216846FFF778FB2046C9
:10364000C2E770B50546FFF7B1F9044671498E31FE
:103650002846FFF714FC012814D196A002F014F8B4
:103660006C4960312846FFF7C0FC28B90A22694935
:1036700060310420FFF79DFF2422294665488E30E3
:1036800001F057FE9148B4FBF0F100FB1140D0B9B6
:103690008F480068A04216D08EA001F0F5FF5D496A
:1036A00060312846FFF7A1FC28B90A225949603148
:1036B0000420FFF77EFF2422294656488E3001F071
:1036C00038FE8348046070BD2DE9FE4F80460E46EB
:1036D00017464FF0000B00200290814682460025DD
:1036E00034460090B8F1000F01D006B137B97FA081
:1036F00001F0CAFF4FF0FF30BDE8FE8F404601F0F9
:1037000049FD00F0FF0ABAF1000F02D14FF0FF307F
:10371000F2E74FF000095DE0012201A9404601F007
:1037200064FD8346BBF1000F52D07C480078FF282F
:103730001FD19DF80400FF281BD17948007848B9B3
:10374000FF202070607002207649088001207449B3
:10375000087034E073480088042830DD7148008820
:10376000A8422CD0FF202070607002206D49088094
:1037700025E06A480078FF2803D19DF80400552809
:103780001DD067480078012819D19DF804006549CB
:103790000988605463480088401C624908800846D4
:1037A000008804280BDD0094009C608801F079F902
:1037B000001D85B25B480088A84200D10CE09DF84E
:1037C00004005649087058480078401C5649087053
:1037D00009F10109D1459FDB00BF52480088042848
:1037E000A4E0000067697A50726F746F636F6C4970
:1037F000737375656450726F63657373204572727D
:103800006F72202C20496C6C6567616C205061726E
:10381000616D0A003A0100205B4552525D20206430
:10382000617461204973204E756C6C200A000000A1
:103830006C656E203D202564202C20734469644C07
:10384000656E203D202564202C646174615F6C6589
:103850006E203D2025640A007561727420777269BC
:103860007465206572726F72202564200A00000062
:1038700067697A5265706F72744461746120457231
:10388000726F72202C20496C6C6567616C205061EE
:1038900072616D0A000000004552523A2075617253
:1038A00074207772697465206572726F7220256466
:1038B000200A00006368616E6765642C2072657081
:1038C0006F727420646174610A000000C0270900EF
:1038D00040000020496E666F3A2036303053207227
:1038E00065706F727420646174610A0067697A5050
:1038F000726F746F636F6C4765744F6E6550616370
:103900006B6574204572726F72202C20496C6C6557
:1039100067616C20506172616D0A000048000020F0
:1039200044000020460000204900002023DDFE481E
:103930000088A8421FD1FC480188204601F09EF86B
:103940000290F9480088401E215C029881420FD104
:103950002A462146304601F0ECFC3D800020F34928
:103960000870F1490880F2490870F2490870C3E60E
:103970006FF00100C0E60120BEE610B50024EE485D
:1039800090F84C0000B910BDECA001F07DFEEA48B3
:10399000B0F86C104D30FFF772F80446E648B0F806
:1039A0006C00A04202D0EDA001F06EFEFEF7FEFF1B
:1039B000E149C1F86E0000BFE5E770B50446DE4D91
:1039C0004D3534B9AFF6A00001F05EFE4FF0FF3088
:1039D00070BD2879401C2179884204D12721D6481E
:1039E0004B3001F0BFFC0020F2E73EB50446002555
:1039F00024B9E0A001F048FE681E3EBD206800909A
:103A0000606801909DF80400401CC0B28DF804006D
:103A1000052001F046F8ADF802000921684601F0E2
:103A20002DF88DF8080009216846FFF728F80546AB
:103A3000002D04DA2946AFF2A01001F025FE284639
:103A4000DBE710B5BC4890F84C00012827D1BA48F4
:103A500090F84B0002281DDAFEF7A8FFB649D1F80E
:103A60006E10401AC8281AD9FEF7A0FF0446B248C3
:103A700090F84B30D0F86E202146C9A001F004FE2A
:103A8000FFF77BFFAC4890F84B00401CAA4981F837
:103A90004B0004E02721A8484B3001F063FC10BD27
:103AA00030B59DB0044600252CB9C7A001F0ECFD4F
:103AB000681E1DB030BD6846FFF728F902208DF85A
:103AC000040060798DF80500CBA103C9CDE902019E
:103AD000CCA103C9CDE90401CDA103C9CDE90801F9
:103AE000CEA103C9CDE906012022CFA10AA801F089
:103AF00020FC2022D5A10DF1520001F01AFC00207B
:103B0000CDF84A00CDF84E009DF851008DF85100D7
:103B10009DF8510040F002018DF85110002000F096
:103B2000C0FFADF848006F2000F0BBFFADF8020009
:103B30007321684600F0A2FF8DF872007321684679
:103B4000FEF79DFF0546002D04DA2946AFF2B820A6
:103B500001F09AFD2846ACE7FEB504460E46002566
:103B600024B9C3A001F090FD681EFEBD6846FFF7B2
:103B7000CDF812208DF8040060798DF8050006203C
:103B800000F08FFFADF802008DF808600A2168464A
:103B900000F074FF8DF809000A216846FEF76FFFF8
:103BA0000546002D04DA2946AFF2143001F06CFD11
:103BB0002846DAE770B5044625462CB9B7A001F0CF
:103BC00063FD4FF0FF3070BDB948A9680160E96836
:103BD0004160298A0181A97C81725749B1F8250188
:103BE00000F05FFF5449A1F82501D1F82D0100F044
:103BF00063FF5149C1F82D010E214F4890F8A220D2
:103C0000A3308154A33890F8A200401C4A4981F89F
:103C1000A200042008700020D5E710B5FEF7C6FE0C
:103C2000044600BFFEF7C2FE001BB0F5167FF9D9AF
:103C3000FEF7BFFE10BD10B504462CB99DA001F0E3
:103C400023FD4FF0FF3010BD208900F02AFF2081B6
:103C5000A4480078C0F38000217AC1F38001884233
:103C600056D0207AC0F38000002829D0207A10F0A6
:103C7000010F0FD00021304890F88A208B308154FA
:103C80008B3890F88A00401C2B4981F88A0096A056
:103C900001F0FAFC207AC0F34000002838D001215E
:103CA000254890F88A208B3081548B3890F88A0010
:103CB000401C214981F88A0093A001F0E5FC27E02F
:103CC000207A10F0010F0FD000211B4890F88A20B5
:103CD0008B3081548B3890F88A00401C164981F84B
:103CE0008A0081A001F0D0FC207AC0F3400078B1B6
:103CF0000221114890F88A208B3081548B3890F83B
:103D00008A00401C0C4981F88A0086A001F0BCFCA6
:103D100074480078C0F3C000217AC1F3C001884222
:103D200000D00DE13AE100004600002044000020F0
:103D30004900002048000020C80000205761726E32
:103D4000696E673A2074696D656F75742C207265B1
:103D500073656E642064617461200A004552523AB2
:103D600020726573656E642064617461206572728F
:103D70006F720A004552523A2067697A50726F7426
:103D80006F636F6C436F6D6D6F6E41636B20646129
:103D9000746120697320656D707479200A000000D9
:103DA0005761726E696E673A67697A50726F746FA5
:103DB000636F6C526573656E644461746120256441
:103DC0002025642025640A0067697A50726F746F39
:103DD000636F6C476574446576696365496E666FA9
:103DE000204572726F72202C20496C6C6567616C83
:103DF00020506172616D0A00303030303030303424
:103E00000000000030303030303030320000000030
:103E10003033303330303030000000003033303158
:103E200030313030000000003063306432343937D4
:103E30006361646434383163616562616231613940
:103E40006166303063616630000000006662626166
:103E50003530353064396466346365343830313236
:103E6000323735366132373461353636000000007E
:103E700067697A50726F746F636F6C4572726F729C
:103E8000436D64204572726F72202C20496C6C6502
:103E900067616C20506172616D0A00004552523AB0
:103EA000204E545020697320656D707479200A008B
:103EB000ED01002067697A50726F746F636F6C4D0B
:103EC0006F64756C65537461747573204572726F9D
:103ED00072202C20496C6C6567616C2050617261A6
:103EE0006D0A00004A0000204F6E426F61726469E3
:103EF0006E673A20536F66744150206F7220576589
:103F000062206D6F64650A004F6E426F6172646972
:103F10006E673A204169724C696E6B206D6F646503
:103F20000A0000004F6E426F617264696E673A204A
:103F300053746174696F6E206D6F64650A000000D0
:103F4000207AC0F3C001FE48007861F3C300FC4949
:103F50000870207AC0F3C00080B10321F94890F8BE
:103F60008A208B3081548B3890F88A00401CF549A8
:103F700081F88A00F4A001F087FB0FE00421F148EA
:103F800090F88A208B3081548B3890F88A00401C3E
:103F9000EC4981F88A00F4A001F076FBE84800784B
:103FA000C0F30010217AC1F3001188422DD0207A8D
:103FB000C0F30011E248007861F30410E049087092
:103FC000207AC0F3001080B10521DE4890F88A20E5
:103FD0008B3081548B3890F88A00401CD94981F885
:103FE0008A00E9A001F050FB0FE00621D54890F8C7
:103FF0008A208B3081548B3890F88A00401CD1493C
:1040000081F88A00E8A001F03FFBCD480078C0F3BA
:104010004010217AC1F3401188422DD0207AC0F39C
:104020004011C748007861F34510C5490870207AEF
:10403000C0F3401080B10721C24890F88A208B302D
:1040400081548B3890F88A00401CBE4981F88A0060
:10405000DEA001F019FB0FE00821BA4890F88A2091
:104060008B3081548B3890F88A00401CB54981F818
:104070008A00DDA001F008FBB1484078C0F3C00120
:10408000607AC0F3C00081422DD0607AC0F3C001D5
:10409000AB48407861F3C300A9494870607AC0F327
:1040A000C00080B10B21A74890F88A208B30815442
:1040B0008B3890F88A00401CA24981F88A00D2A06F
:1040C00001F0E2FA0FE00C219E4890F88A208B3034
:1040D00081548B3890F88A00401C9A4981F88A00F4
:1040E000D0A001F0D1FA96484078C0F30011607A70
:1040F000C0F3001081422DD0607AC0F300119048C7
:10410000407861F304108E494870607AC0F3001063
:1041100080B109218B4890F88A208B3081548B38EC
:1041200090F88A00401C874981F88A00C5A001F0F8
:10413000ABFA0FE00A21834890F88A208B30815433
:104140008B3890F88A00401C7E4981F88A00C4A010
:1041500001F09AFA0D217B4890F88A208B30815427
:104160008B3890F88A00401C764981F88A00607A82
:1041700000F0070081F82401084690F82411BFA040
:1041800001F082FA02206F49087000205BE510B54B
:104190003E20BE490860BE48C860084600F0DCFF0B
:1041A00018B9BCA001F070FA02E0BFA001F06CFAEF
:1041B0004FF4B971634801F0D5F810BD30B587B040
:1041C00005460024052D7DD2DFE805F0033161931B
:1041D000B80001A8FEF79AFD0B208DF80800594899
:1041E00090F84310D0F84300401C564AC2F84300F0
:1041F000C8B28DF80900052000F053FCADF80600A8
:10420000092101A800F03AFC8DF80C00092101A851
:10421000FEF735FC0446002C04DA2146AFF6881080
:1042200001F032FA092101A8FEF781FD82E104A81C
:10423000FEF76CFD09208DF81400424890F84310F9
:10424000D0F84300401C3F4AC2F84300C8B28DF882
:1042500015008DF81850062000F023FCADF8120070
:104260000A2104A800F00AFC8DF819000A2104A80C
:10427000FEF705FC0446002C04DA2146AFF6E810F0
:1042800001F002FA0A2104A8FEF751FD52E104A848
:10429000FEF73CFD09208DF814002A4890F84310E1
:1042A000D0F84300401C274AC2F84300C8B28DF83A
:1042B00015008DF81850062000F0F3FBADF8120041
:1042C0000A2100E032E104A800F0D8FB8DF81900C3
:1042D0000A2104A8FEF7D3FB0446002C04DA214689
:1042E000AFF64C2001F0D0F90A2104A8FEF71FFD1B
:1042F00020E101A8FEF70AFD13208DF808001148FF
:1043000090F84310D0F84300401C0E4AC2F8430016
:10431000C8B28DF80900052000F0C3FBADF8060017
:10432000092101A800F0AAFB8DF80C00092101A8C1
:10433000FEF7A5FB0446002C01DABFE0C8E0C2E0AE
:104340004A000020C8000020576946692073746144
:104350007475733A20696E2062696E64696E6720B5
:104360006D6F64650A0000005769466920737461C7
:104370007475733A206F75742062696E64696E6734
:10438000206D6F64650A0000576946692073746187
:104390007475733A20636F6E6E6563746564207222
:1043A0006F757465720A00005769466920737461FD
:1043B0007475733A20646973636F6E6E65637465B8
:1043C0006420726F757465720A000000576946694F
:1043D000207374617475733A20636F6E6E656374D5
:1043E0006564206D326D0A005769466920737461F7
:1043F0007475733A20646973636F6E6E6563746578
:1044000064206D326D0A000057694669207374613B
:104410007475733A2061707020636F6E6E6563749B
:104420000A00000057694669207374617475733A15
:10443000206E6F2061707020636F6E6E6563740A0A
:104440000000000057694669207374617475733AFF
:1044500020696E2074657374206D6F64650A0000B6
:1044600057694669207374617475733A206F757467
:104470002074657374206D6F64650A00525353494C
:10448000206973202564200A000000003A02002001
:104490004A0200207262437265617465205375633D
:1044A00063657373200A000072624372656174650C
:1044B000204661696C64200A000000002146AFF6C6
:1044C000284001F0E1F8092101A8FEF730FC31E0B5
:1044D00001A8FEF71BFC15208DF80800FE4890F897
:1044E0004310D0F84300401CFB4AC2F84300C8B256
:1044F0008DF80900052000F0D4FAADF80600092176
:1045000001A800F0BBFA8DF80C00092101A8FEF704
:10451000B6FA0446002C04DA2146AFF6844001F0D6
:10452000B3F8092101A8FEF702FC03E0EBA001F0BB
:10453000ABF800BF00BF204607B030BD3EB5002439
:104540006846FEF7E3FB17208DF80400E24890F878
:104550004310D0F84300401CDF4AC2F84300C8B201
:104560008DF80500052000F09CFAADF80200092145
:10457000684600F083FA8DF8080009216846FEF7C6
:104580007EFA0446002C03DA2146DAA001F07CF81A
:1045900009216846FEF7CBFB3EBD3EB500246846C8
:1045A000FEF7B4FB21208DF80400CB4890F84310AF
:1045B000D0F84300401CC84AC2F84300C8B28DF886
:1045C000050000208DF80800062000F06AFAADF81A
:1045D00002000A21684600F051FA8DF809000A210C
:1045E0006846FEF74CFA0446002C03DA2146C1A0C7
:1045F00001F04AF80A216846FEF799FB3EBD70B506
:10460000044625462CB9C3A001F03EF84FF0FF3018
:1046100070BD412205F10801C24800F08AFE0F2159
:10462000AD4890F8BA20BB308154BB3890F8BA003E
:10463000401CA94981F8BA00052008700020E7E76E
:104640002DE9F04194B00546002600200390029029
:1046500000248046002735B9B3A001F015F8601E8C
:1046600014B0BDE8F081FFF7ECF903AA9A49491CA0
:10467000B748FFF729F80646002E75D1B5A001F01E
:1046800003F8954C641C20790D2844D00EDC0728D3
:104690003DD006DC012818D003281AD006286FD197
:1046A00040E00A283FD00C286AD13DE016283CD0D3
:1046B00006DC0F283DD0112844D0142860D142E0F8
:1046C000182847D022285BD14FE02046FFF7E8F9B1
:1046D0005EE0E279A179A4A000F0D6FF02A80090E4
:1046E00007F10900BDF80C301A1A7B480930C119CE
:1046F00004AB4046FEF77AFE40B9E37904A92046B0
:10470000029AFEF7E5FE9CA000F0BEFF40E02046C6
:10471000FFF76BF93CE02046FFF767F92046FFF70B
:104720008AFA35E000BF00BF00BF2046FFF745F919
:104730002EE02046FFF759F992A000F0A5FFFFF701
:104740006CFA25E024E02046FFF737F992A000F04C
:104750009BFF1DE02046FFF730F92046FFF72AFABD
:1047600095A000F091FF13E013E02046FFF725F934
:104770002046FFF744FF96A000F086FF08E0FFE721
:1047800002212046FFF7E8F998A000F07DFF00BF66
:104790000EE016F1020F0BD14F4C641C0121204694
:1047A000FFF7DAF997A000F06FFF6FF0010057E70D
:1047B0004948007806284DD2DFE800F04C03122269
:1047C0002D3D0020444908702422DC31A1F16A000B
:1047D000FEF704F818214048723000F0C3FD3AE0BB
:1047E00000203D490870012201F59271A1F19A0063
:1047F000FDF7F4FF182138488A3000F0B3FD2AE0B5
:104800000020354908700846D0F83F20203172302A
:10481000FDF7E4FF1FE000202F4908700C2201F291
:104820002511A1F18300FDF7D9FF18213D488F38EC
:1048300000F098FD0FE00020274908704122394917
:10484000A1F17700FDF7CAFF41213648773800F023
:1048500089FD00E000BF00BF2846FEF7F2FE002001
:10486000FEE62DE9F04188B006460F464FF00008FD
:104870006C46B81D85B23EB968A000F005FF4FF048
:10488000FF3008B0BDE8F081FF2004F8010B04F808
:10489000010B281204F8010B04F8015B052004F851
:1048A000010B0D4890F84310D0F84300401C0A4A11
:1048B000C2F8430004F8011B002004F8010B04F8BF
:1048C000010B062004F8010B3A4631460DF10900B0
:1048D00000F02FFD291DB5E0C80000204552523AD6
:1048E000204366674D6F6465206572726F72210A9E
:1048F000000000004552525B4E54505D3A207561F5
:104900007274207772697465206572726F722025E7
:1049100064200A004E545020697320656D707479CC
:10492000200A0000F901002047697A77697473480A
:10493000616E646C65204572726F72202C20496C28
:104940006C6567616C20506172616D0A0000000047
:104950003A020020476574204F6E65205061636BFA
:104960006574210A00000000666C616720257820CC
:104970002578200A0000000041636B4461746120C7
:104980003A200A007265706F72743A4D4355207276
:1049900065626F6F74210A0041636B2050524F446F
:1049A000554354494F4E5F4D4F44452073756363E3
:1049B000657373200A00000041636B204745545F14
:1049C0005554542073756363657373200A000000A7
:1049D00041636B204745545F4D6F64756C65207370
:1049E000756363657373200A000000004552523AF4
:1049F00020636D6420636F6465206572726F72213D
:104A00000A0000004552523A20636865636B2073C8
:104A1000756D206572726F72210A00005B455252FB
:104A20005D2067697A776974735061737374687213
:104A30006F75676844617461204572726F72200AF5
:104A400000000000684600F019F80146E81C0DF867
:104A50000010291D6846FEF712F88046B8F1000FD5
:104A600003DA4146044800F00FFE291D6846FEF7B0
:104A70005EF9002005E700009838000810B50246EE
:104A80000024002302B109B9002010BD022303E075
:104A9000D05C2044C4B25B1C481E9842F8D8204623
:104AA000F3E701B581B0694601AA50780870107823
:104AB0004870BDF800000CBD0146080601F47F42B5
:104AC00040EA022001F47F0240EA122040EA11602D
:104AD000704710B502460024302A05DB392A03DC72
:104AE000A2F13000C3B20EE0412A05DB462A03DC06
:104AF000A2F13700C3B206E0612A04DB662A02DCB9
:104B0000A2F15700C3B2302905DB392903DCA1F13A
:104B10003000C4B20EE0412905DB462903DCA1F1D7
:104B20003700C4B206E0612904DB662902DCA1F18A
:104B30005700C4B204EB0310C0B210BD70B50446F8
:104B400000250026204600F018FC06460CB9681E19
:104B500070BD002505E0605D302801D00020F7E73A
:104B60006D1CB542F7D30120F2E72DE9F04303466F
:104B700000BF0025002400260027012901D00229BA
:104B80000DD1A3F1010C4FF06408BCFBF8F4BCFBA1
:104B9000F8F908FB19C501F10C06174609E04FF0BA
:104BA000640CB3FBFCF4B3FBFCF80CFB18350E46AD
:104BB000174606F1010C4FF01A080CFB08FC4FF0E9
:104BC0000A08BCFBF8FC05EB950808EB94084FF0CD
:104BD000020909FB1488C444BC44ACF1010000285C
:104BE00006DB4FF0070C90FBFCF80CFB180C07E001
:104BF0004FF0070C90FBFCF80CFB180C0CF1070CA9
:104C00006046BDE8F08301460A46C81701EB907084
:104C10008010B1EB80000ED1642091FBF0F300FB1B
:104C2000131030B94FF4C87091FBF0F300FB131070
:104C300008B9012070470020FCE710B50446204663
:104C4000FFF7E1FF10B14FF4B77010BD40F26D10E7
:104C5000FBE72DE9F04190B080460E4640F2B27578
:104C60003022684901A800F064FB344604F5E144B1
:104C700000BF11E02846FFF7E0FF074640F2A320FF
:104C80007843B4EBC01F06D340F2A3207843A4EBD3
:104C9000C0146D1C00E001E0002CEBD100BFA8B2F5
:104CA000ADF83400002518E0BDF83400FFF7ABFF85
:104CB00008B11D20029001A850F8250040F2A32160
:104CC0004843B4EBC01F07D301A850F82500484360
:104CD000A4EBC0146D1C00E001E0002CE4D100BF87
:104CE0001C200290681CC0B28DF83600012506E039
:104CF0004548844202D3241A6D1C00E001E0002CD8
:104D0000F6D100BFE8B28DF837004FF46160B4FB14
:104D1000F0F0C0B28DF838004FF46160B4FBF0F1F0
:104D200000FB11403C21B0FBF1F0C0B28DF839001E
:104D30003C20B4FBF0F100FB11408DF83A00CDF8B7
:104D40003B600D98C8F800000E98C8F80400BDF844
:104D50003C00A8F808009DF83E0088F80A0010B052
:104D6000BDE8F0812DE9F05F80460E4691460024B3
:104D70001CE016F814A06000401C16F800B0504665
:104D800000F0D1FA3038C5B2092D01DDE81FC5B2F7
:104D9000584600F0C8FA3038C7B2092F01DDF81FB5
:104DA000C7B207EB051008F80400641C4C45E0DBB3
:104DB000BDE8F09FF0B5034600201DE00E5CF7173C
:104DC00006EB17773F1107F130050E5CF71706EB7E
:104DD00017773F11A6EB07173037FCB2392D00DDEE
:104DE000ED1D392C01DDE61DF4B203F8105001264B
:104DF00006EB40069C55401C9042DFDB002603F882
:104E00001260F0BD285B00088051010030B50246F9
:104E10000B460021002400250AB9481E30BD0021A0
:104E200008E0545C581A401E155C5554581A401E30
:104E30001454491CB1EB530FF3D30020EEE710B527
:104E400003460020541AB4FBF3F010BD10B503461E
:104E5000002002FB031010BD2DE9F04704460E466A
:104E6000154600273146284600F0E0FA81462146E3
:104E700000F018FB804600F05AFB07463846BDE8B4
:104E8000F0872DE9F04704460E46154600272846D0
:104E900000F048FB8146214600F0CEFA80463146BC
:104EA00000F072FA07463846BDE8F087024612B1B4
:104EB00012F0070F05D1082901D800207047012002
:104EC000FCE702F00700C0F10800884201D300208F
:104ED000F4E70120F2E72DE9F0470546884614463D
:104EE0001E464FF00009CA460027002314B9581E79
:104EF000BDE8F087EB0841462846FFF7D7FF074695
:104F00003FB9E05C05F0070106FA01F10843E054FF
:104F10001DE0012F1BD1F0B205F00701C1F108011E
:104F200040FA01F905F00700C0F10801FF2008412F
:104F300000EA060A581C205C40EA0900591C60542B
:104F4000E05C05F007010AFA01F10843E054002093
:104F5000CEE72DE9F04F8FB004460F4690461D4630
:104F60000026B246B146B34600200E90B8F1000FBD
:104F700000D025B94FF0FF300FB0BDE8F08F4FEAF9
:104F8000D4092A46414601A800F0D3F9012D09D9D8
:104F9000294601A8FFF73AFFB0F1FF3F02D14FF0D9
:104FA000FF30E9E739462046FFF780FF8246BAF135
:104FB000000F0CD101A810F8090004F00701084106
:104FC000C7F10802FF2111410840064321E0BAF170
:104FD000010F1ED101A909F10100085C04F00701CD
:104FE000C1F10801791AC1F10802FF21114100EA5B
:104FF000010B01A810F8090004F0070108410E9008
:1050000004F00700C0F108010BFA01F006430E9806
:1050100006433046B0E72DE9F04F8FB005460C4609
:1050200016469946189F4FF0000AD34600200E906E
:105030008046B9F1000F00D027B94FF0FF300FB014
:10504000BDE8F08F3A46494601A800F072F9012FF9
:1050500009D9394601A8FFF7D9FEB0F1FF3F02D1C7
:105060004FF0FF30EBE731462046FFF71FFF824647
:10507000BAF1000F0CD101A8405D04F0070108410E
:10508000C6F10802FF211141084040EA080821E06A
:10509000BAF1010F1ED101A9681C085C04F00701D8
:1050A000C1F10801711AC1F10802FF21114100EAA2
:1050B000010B01A8405D04F0070108410E9004F0C7
:1050C0000700C0F108010BFA01F040EA08080E9849
:1050D00048EA00084046B2E72DE9F04704460D468D
:1050E0001746089E4FF00009CA46C8461BB94FF044
:1050F000FF30BDE8F08739462846FFF7D7FE8046E7
:10510000B8F1000F07D1185D05F0070106FA01F1AB
:10511000084318551EE0B8F1010F1BD1F0B205F09D
:105120000701C1F1080140FA01F905F00700C0F1DB
:105130000801FF20084100EA060A601C185C40EAEA
:105140000900611C5854185D05F007010AFA01F1C5
:10515000084318550020CCE7014611B94FF0FF3045
:105160007047C8684860C86888600020F8E7014652
:1051700011B94FF0FF3070470020C8604860886068
:10518000086000BFF7E7014611B94FF0FF307047E4
:105190000868FCE700B5024612B94FF0FF3000BDC9
:1051A00050689168884201D10020F8E75068916802
:1051B000884203D290685168401AF0E71046FFF722
:1051C000E2FF51689368C91A401AE8E730B504460F
:1051D00014B94FF0FF3030BD2046FFF7D4FF05462D
:1051E0002046FFF7D7FF281AF5E72DE9F0410446DE
:1051F0000F461646002514B9681EBDE8F08117B9A0
:105200004FF0FF30F9E76068A168884214D2204669
:10521000FFF7C0FFB04201D9304602E02046FFF759
:10522000B9FF054661682A46384600F082F8606892
:10523000284460602846E0E72046FFF7A4FF616845
:10524000E268891A401AB0420AD9354661682A468E
:10525000384600F06EF86068284460602846CCE765
:105260002046FFF790FF6168E268891A451A616875
:105270002A46384600F05DF8E0686060721B7919D4
:105280002046FFF7B2FF05442846B6E72DE9F04176
:1052900004460F461546002604B11FB94FF0FF30F3
:1052A000BDE8F0812046FFF791FFA84202D86FF0D9
:1052B0000100F5E76068A16888422AD82046FFF718
:1052C00062FFA168E268891A461AB54213D8A0683D
:1052D0002A46394600F02DF8A0682844A0602046F0
:1052E000FFF751FFE1680844A168884201D1E068F6
:1052F000A0602846D4E7A0683246394600F019F885
:10530000E068A060AA1BB9192046FFF7BFFF304430
:10531000C6E7A0682A46394600F00BF8A068284482
:10532000A0602846BCE7A0F16101192900D8203807
:10533000704740EA01039B0703D009E008C9121F28
:1053400008C0042AFAD203E011F8013B00F8013B3F
:10535000521EF9D27047D2B201E000F8012B491E6B
:10536000FBD270470022F6E710B513460A46044602
:105370001946FFF7F0FF204610BD421C10F8011B34
:105380000029FBD1801A7047F0B480EA0102D40FE3
:105390004200B2EB410F02D20246084611464A00D3
:1053A00042D0C30DDDB2C1F3C752AD1A202D35DA9C
:1053B000C1F3160141F4000204B15242C5F12006C6
:1053C00002FA06F12A411044B3EBD05F23D0C4B1F6
:1053D000012DA0EBC35009DCF0BC4FF0004202EA03
:1053E000C35200F50000DBB200F0EFB8400000F15E
:1053F000807000EBC350A0F1807040EAD17049008A
:1054000009E0490841EAC071A0EBC35000F5000073
:10541000400800EBC350F0BC00F0CEB8614201225E
:1054200002EB4101001BF6E7F0BC704781F0004140
:10543000AAE780F00040A7E780EA010210B502F079
:105440000043400026D04A0023D04FEA106101EB10
:105450001261C0F35600C2F3560240F4000042F459
:105460000002A0FB0220A1F17F014FEA00401404DA
:1054700001D000F1010050EA124001D44000491E61
:10548000C2B20C0604EBD010401C4008802A02D0A7
:1054900003E0002010BD20F00100002900DA002008
:1054A000184310BD30B480EA010202F0004530F02C
:1054B000004221F0004015D0A0B1C0F3C753C2F3A1
:1054C000C754C2F31601C0F31600E41A41F40001F8
:1054D00040F400027D34914201D3641C00E0490095
:1054E000002C02DA30BC002070474FF4000000238B
:1054F000914201D3891A034340084FEA4101F7D191
:1055000051B1914202D14FF0004105E002D24FF07B
:10551000010101E06FF0010103EBC450284430BCED
:1055200000F04AB896230022114600F04EB820F051
:105530000040C10DC0F3160040F400007F2901DADD
:1055400000207047962903DCC1F19601C8407047DE
:105550009639884070472DE9F05F05460020924655
:105560009B4688460646814640241BE02846414625
:105570004746224600F077F853465A46C01A9141F2
:1055800010D311461846224600F05EF82D1A67EB3C
:1055900001084F4622460120002100F055F817EB84
:1055A00000094E41201EA4F10104DFDC48463146CB
:1055B0002A464346BDE8F09F0029A8BF7047401C1B
:1055C000490008BF20F00100704710B4B0FA80FC19
:1055D00000FA0CF050EA010404BF10BC704749B156
:1055E000CCF1200421FA04F411FA0CF118BF0121C6
:1055F00021430843A3EB0C01CB1D0106000A002B3D
:10560000BEBF002010BC704700EBC35010440029FF
:10561000A4BF10BC7047401C490008BF20F0010027
:1056200010BC7047064C074D06E0E06840F00103EF
:1056300094E8070098471034AC42F6D3FAF75AFDC5
:10564000585B0008785B0008202A04DB203A00FA47
:1056500002F1002070479140C2F1200320FA03F3C9
:10566000194390407047202A04DB203A21FA02F0C7
:105670000021704721FA02F3D040C2F1200291408C
:1056800008431946704700000FB4054B10B503A935
:10569000044A029800F018F810BC5DF814FB0000F2
:1056A000D92600084C00002002E008C8121F08C1DB
:1056B000002AFAD170477047002001E001C1121F93
:1056C000002AFBD1704700002DE9FF4F8DB00F4637
:1056D00005460026DEE1252874D100246D1CF14921
:1056E000A246A14601222B78203B02FA03F0084291
:1056F00002D004436D1CF6E728782A2810D06FF0FA
:105700002F022878A0F13001092915D80AEB8A0167
:1057100002EB410144F0020400EB010A6D1CF0E7CA
:1057200057F804ABBAF1000F03DA44F40054CAF19D
:10573000000A44F002046D1C28782E2817D115F8B1
:10574000010F44F004042A280ED06FF02F022878AD
:10575000A0F1300109290AD809EB890102EB4101C6
:1057600000EB01096D1CF2E757F8049B6D1C2878CB
:105770006C280FD006DC4C2817D068280DD06A287A
:1057800014D104E0742810D07A280FD10DE044F42D
:1057900000140AE044F4801401E044F440146978F1
:1057A000814202D16D1C04F580146D1C2A786E2A8A
:1057B00020D00DDC632A33D005DC002A6FD0582AB4
:1057C00012D1A2E011E0642A6AD0692A0CD167E004
:1057D000732A2FD004DC6F2A6FD0702A04D199E08D
:1057E000752A6BD0782A6AD01046DDE90F129047EF
:1057F000761C4EE1C4F30250022806D003280AD0DA
:10580000042801CF0AD0066043E101CF4FEAE671D8
:10581000C0E900613DE101CF06803AE1067038E160
:1058200017F8040B8DF8000000208DF80100EB46FE
:10583000012003E057F804BB4FF0FF3061074FF041
:10584000000102D40DE008F10101884649450FDA54
:105850008045F8DB1BF808100029F4D108E008F1B6
:10586000010188468142FADB1BF808100029F6D1B5
:10587000DDE90F23AAEB08008146214600F03BF941
:10588000304400EB080604E0DDE90F121BF8010BC1
:105890009047B8F10108F7D221464846F4E0FDE010
:1058A0000A21C4F302534FF0000B0891022B07D0DA
:1058B00001CFC117032B09D00AE034E023E024E034
:1058C000FF1D27F00707F7E8020105E000B2C11746
:1058D000042B01D140B2C117002907DA4FF0000CA8
:1058E000D0EB0C006CEB01012D2302E0230504D565
:1058F0002B238DF82430012303E0E30701D020237C
:10590000F7E7984650E00A210EE010204FF0000B18
:1059100008900CE010214FF0000B44F004044FF00D
:105920000809089103E008214FF0000B0891C4F327
:105930000253022B04D001CF0021032B06D006E036
:10594000FF1D27F00707F7E8020103E080B2042BF0
:1059500000D1C0B24FF00008230725D5702A2AD005
:10596000DDF820C08CF0100C5CEA0B0C09D150EA79
:10597000010306D030238DF824308DF82520022332
:105980009846DDF820C08CF0080C5CEA0B0C0BD1BB
:1059900050EA010301D1630706D530238DF8243086
:1059A0004FF00108A9F10109582A09D03EA20B9233
:1059B00008AA0A9211E040238DF824300123DFE782
:1059C0003EA2F4E75B46089AFFF7C5FD0B9B9B5C84
:1059D0000A9AA2F101020A92137050EA0102F1D16F
:1059E0000A98ADEB000000F1200B600702D524F40B
:1059F000803401E04FF00109D94502DDA9EB0B002D
:105A000000E0002000EB0B0141440890AAEB010AE2
:105A1000E00306D4DDE90F232146504600F06BF881
:105A20000644002008E009A911F80900DDE90F1279
:105A30009047761C09F1010081464045F3DBE00305
:105A40000CD5DDE90F232146504600F054F80644FA
:105A500004E0DDE90F1230209047761C0899481EBB
:105A600008900029F5DC08E00A980A990078491C9A
:105A70000A91DDE90F129047761CBBF10001ABF1F2
:105A8000010BF1DC21465046DDE90F2300F020F840
:105A900006446D1C287800287FF41DAE11B03046F6
:105AA000BDE8F08F09280100303132333435363704
:105AB000383961626364656600000000303132335A
:105AC00034353637383941424344454600000000FA
:105AD0002DE9F041044600251E461746880405D4EA
